{
  "address": "0x0112C6aFF8d6dA3fE6f237AE4D22040F07dA9680",
  "abi": [
    {
      "inputs": [
        {
          "internalType": "uint64",
          "name": "minBet",
          "type": "uint64"
        },
        {
          "internalType": "address",
          "name": "vrfCoordinatorV2",
          "type": "address"
        },
        {
          "internalType": "uint64",
          "name": "subscriptionId",
          "type": "uint64"
        },
        {
          "internalType": "bytes32",
          "name": "gasLane",
          "type": "bytes32"
        },
        {
          "internalType": "uint32",
          "name": "callbackGasLimit",
          "type": "uint32"
        }
      ],
      "stateMutability": "payable",
      "type": "constructor"
    },
    {
      "inputs": [
        {
          "internalType": "address",
          "name": "have",
          "type": "address"
        },
        {
          "internalType": "address",
          "name": "want",
          "type": "address"
        }
      ],
      "name": "OnlyCoordinatorCanFulfill",
      "type": "error"
    },
    {
      "inputs": [],
      "name": "Roll__InvalidGuess",
      "type": "error"
    },
    {
      "inputs": [],
      "name": "Roll__MinBetNotMet",
      "type": "error"
    },
    {
      "inputs": [],
      "name": "Roll__NotEnoughFund",
      "type": "error"
    },
    {
      "inputs": [],
      "name": "Roll__PermissionDenied",
      "type": "error"
    },
    {
      "inputs": [],
      "name": "Roll__TransactionFailed",
      "type": "error"
    },
    {
      "anonymous": false,
      "inputs": [
        {
          "indexed": true,
          "internalType": "uint256",
          "name": "amount",
          "type": "uint256"
        }
      ],
      "name": "addToBank",
      "type": "event"
    },
    {
      "anonymous": false,
      "inputs": [
        {
          "indexed": true,
          "internalType": "address",
          "name": "player",
          "type": "address"
        },
        {
          "indexed": true,
          "internalType": "uint256",
          "name": "requestId",
          "type": "uint256"
        }
      ],
      "name": "diceRoll",
      "type": "event"
    },
    {
      "anonymous": false,
      "inputs": [
        {
          "indexed": true,
          "internalType": "address",
          "name": "player",
          "type": "address"
        },
        {
          "indexed": true,
          "internalType": "uint256",
          "name": "requestId",
          "type": "uint256"
        }
      ],
      "name": "rollCompleted",
      "type": "event"
    },
    {
      "inputs": [],
      "name": "fundBank",
      "outputs": [],
      "stateMutability": "payable",
      "type": "function"
    },
    {
      "inputs": [],
      "name": "getBank",
      "outputs": [
        {
          "internalType": "uint256",
          "name": "",
          "type": "uint256"
        }
      ],
      "stateMutability": "view",
      "type": "function"
    },
    {
      "inputs": [
        {
          "internalType": "uint256",
          "name": "requestId",
          "type": "uint256"
        }
      ],
      "name": "getBet",
      "outputs": [
        {
          "internalType": "address",
          "name": "",
          "type": "address"
        },
        {
          "internalType": "uint256",
          "name": "",
          "type": "uint256"
        },
        {
          "internalType": "uint8",
          "name": "",
          "type": "uint8"
        }
      ],
      "stateMutability": "view",
      "type": "function"
    },
    {
      "inputs": [],
      "name": "getMinBet",
      "outputs": [
        {
          "internalType": "uint256",
          "name": "",
          "type": "uint256"
        }
      ],
      "stateMutability": "view",
      "type": "function"
    },
    {
      "inputs": [
        {
          "internalType": "uint256",
          "name": "requestId",
          "type": "uint256"
        },
        {
          "internalType": "uint256[]",
          "name": "randomWords",
          "type": "uint256[]"
        }
      ],
      "name": "rawFulfillRandomWords",
      "outputs": [],
      "stateMutability": "nonpayable",
      "type": "function"
    },
    {
      "inputs": [],
      "name": "recieve",
      "outputs": [],
      "stateMutability": "payable",
      "type": "function"
    },
    {
      "inputs": [
        {
          "internalType": "uint8",
          "name": "_guess",
          "type": "uint8"
        }
      ],
      "name": "rollDice",
      "outputs": [
        {
          "internalType": "uint256",
          "name": "requestId",
          "type": "uint256"
        }
      ],
      "stateMutability": "payable",
      "type": "function"
    }
  ],
  "transactionHash": "0x6a5d8c2512eae13c158802e0456654977dd53968a1ac04f8b1082e0c806d743b",
  "args": [
    "10000000000000000",
    "0x7a1BaC17Ccc5b313516C5E16fb24f7659aA5ebed",
    2187,
    "0x4b09e658ed251bcafeebbc69400383d49f344ace09b9576fe248bb02c003fe9f",
    "2500000"
  ],
  "numDeployments": 1,
  "solcInputHash": "c060fc6dc04b5ed5a8f2794030170b5a",
  "bytecode": "0x610140604052604051620014063803806200140683398181016040528101906200002a919062000267565b838073ffffffffffffffffffffffffffffffffffffffff1660808173ffffffffffffffffffffffffffffffffffffffff1681525050503373ffffffffffffffffffffffffffffffffffffffff1660a08173ffffffffffffffffffffffffffffffffffffffff1681525050846000806101000a81548167ffffffffffffffff021916908367ffffffffffffffff160217905550346001819055508373ffffffffffffffffffffffffffffffffffffffff1660c08173ffffffffffffffffffffffffffffffffffffffff16815250508267ffffffffffffffff1660e08167ffffffffffffffff16815250508161010081815250508063ffffffff166101208163ffffffff16815250505050505050620002ef565b600080fd5b600067ffffffffffffffff82169050919050565b620001608162000141565b81146200016c57600080fd5b50565b600081519050620001808162000155565b92915050565b600073ffffffffffffffffffffffffffffffffffffffff82169050919050565b6000620001b38262000186565b9050919050565b620001c581620001a6565b8114620001d157600080fd5b50565b600081519050620001e581620001ba565b92915050565b6000819050919050565b6200020081620001eb565b81146200020c57600080fd5b50565b6000815190506200022081620001f5565b92915050565b600063ffffffff82169050919050565b620002418162000226565b81146200024d57600080fd5b50565b600081519050620002618162000236565b92915050565b600080600080600060a086880312156200028657620002856200013c565b5b600062000296888289016200016f565b9550506020620002a988828901620001d4565b9450506040620002bc888289016200016f565b9350506060620002cf888289016200020f565b9250506080620002e28882890162000250565b9150509295509295909350565b60805160a05160c05160e05161010051610120516110c06200034660003960006104ba01526000610476015260006104970152600061043a015260006106d401526000818161026401526102b801526110c06000f3fe6080604052600436106100705760003560e01c806360d704db1161004e57806360d704db146101085780639606304914610133578063a9e10bf214610163578063aa07b2ff1461016d57610070565b8063061e494f146100755780631fe543e3146100b457806324c37507146100dd575b600080fd5b34801561008157600080fd5b5061009c60048036038101906100979190610a50565b610177565b6040516100ab93929190610ae9565b60405180910390f35b3480156100c057600080fd5b506100db60048036038101906100d69190610c79565b610262565b005b3480156100e957600080fd5b506100f2610322565b6040516100ff9190610cd5565b60405180910390f35b34801561011457600080fd5b5061011d610349565b60405161012a9190610cd5565b60405180910390f35b61014d60048036038101906101489190610d1c565b610353565b60405161015a9190610cd5565b60405180910390f35b61016b6106b1565b005b6101756106bb565b005b6000806000610255600260008681526020019081526020016000206040518060a00160405290816000820160009054906101000a900473ffffffffffffffffffffffffffffffffffffffff1673ffffffffffffffffffffffffffffffffffffffff1673ffffffffffffffffffffffffffffffffffffffff168152602001600182015481526020016002820160009054906101000a900460ff1660ff1660ff1681526020016002820160019054906101000a900460ff161515151581526020016002820160029054906101000a900460ff161515151581525050610788565b9250925092509193909250565b7f000000000000000000000000000000000000000000000000000000000000000073ffffffffffffffffffffffffffffffffffffffff163373ffffffffffffffffffffffffffffffffffffffff161461031457337f00000000000000000000000000000000000000000000000000000000000000006040517f1cf993f400000000000000000000000000000000000000000000000000000000815260040161030b929190610d49565b60405180910390fd5b61031e82826107a9565b5050565b60008060009054906101000a900467ffffffffffffffff1667ffffffffffffffff16905090565b6000600154905090565b60003460015411610390576040517f30a5414100000000000000000000000000000000000000000000000000000000815260040160405180910390fd5b8160018160ff1610806103a95750600660ff168160ff16115b156103e0576040517f0240155100000000000000000000000000000000000000000000000000000000815260040160405180910390fd5b60008054906101000a900467ffffffffffffffff1667ffffffffffffffff16341015610438576040517f7b511a2500000000000000000000000000000000000000000000000000000000815260040160405180910390fd5b7f000000000000000000000000000000000000000000000000000000000000000073ffffffffffffffffffffffffffffffffffffffff16635d3b1d307f00000000000000000000000000000000000000000000000000000000000000007f000000000000000000000000000000000000000000000000000000000000000060037f000000000000000000000000000000000000000000000000000000000000000060016040518663ffffffff1660e01b81526004016104fb959493929190610e47565b6020604051808303816000875af115801561051a573d6000803e3d6000fd5b505050506040513d601f19601f8201168201806040525081019061053e9190610eaf565b915034600160008282546105529190610f0b565b925050819055506040518060a001604052803373ffffffffffffffffffffffffffffffffffffffff1681526020013481526020018460ff168152602001600015158152602001600015158152506002600084815260200190815260200160002060008201518160000160006101000a81548173ffffffffffffffffffffffffffffffffffffffff021916908373ffffffffffffffffffffffffffffffffffffffff1602179055506020820151816001015560408201518160020160006101000a81548160ff021916908360ff16021790555060608201518160020160016101000a81548160ff02191690831515021790555060808201518160020160026101000a81548160ff021916908315150217905550905050813373ffffffffffffffffffffffffffffffffffffffff167f3220a43a1452d891399353a5cca1d1be8303a0669b169d306326a945bf260f0f60405160405180910390a350919050565b6106b96106bb565b565b3373ffffffffffffffffffffffffffffffffffffffff167f000000000000000000000000000000000000000000000000000000000000000073ffffffffffffffffffffffffffffffffffffffff1614610740576040517f4001378500000000000000000000000000000000000000000000000000000000815260040160405180910390fd5b34600160008282546107529190610f3f565b92505081905550347f30f50106bb93ed71e75809900507c4a6ecf5bd971ccd3e55e20d84f1c5b0a7a060405160405180910390a2565b60008060008360000151846020015185604001519250925092509193909250565b60006001600660ff16836000815181106107c6576107c5610f73565b5b60200260200101516107d89190610fd1565b6107e29190610f3f565b905060006002600085815260200190815260200160002060000160009054906101000a900473ffffffffffffffffffffffffffffffffffffffff16905060006002600086815260200190815260200160002060020160009054906101000a900460ff169050600060026000878152602001908152602001600020600101549050610878848360ff166109f690919063ffffffff16565b156109615760008373ffffffffffffffffffffffffffffffffffffffff166002836108a39190611002565b6040516108af90611075565b60006040518083038185875af1925050503d80600081146108ec576040519150601f19603f3d011682016040523d82523d6000602084013e6108f1565b606091505b505090508061092c576040517f7d416def00000000000000000000000000000000000000000000000000000000815260040160405180910390fd5b60016002600089815260200190815260200160002060020160016101000a81548160ff0219169083151502179055505061097b565b80600160008282546109739190610f3f565b925050819055505b60016002600088815260200190815260200160002060020160026101000a81548160ff021916908315150217905550858373ffffffffffffffffffffffffffffffffffffffff167fca01c7aaaf2501b3d768ec7cd447b9daf1c87fff76089cd1ee13a9818fb1ae3660405160405180910390a3505050505050565b60008260ff168214905092915050565b6000604051905090565b600080fd5b600080fd5b6000819050919050565b610a2d81610a1a565b8114610a3857600080fd5b50565b600081359050610a4a81610a24565b92915050565b600060208284031215610a6657610a65610a10565b5b6000610a7484828501610a3b565b91505092915050565b600073ffffffffffffffffffffffffffffffffffffffff82169050919050565b6000610aa882610a7d565b9050919050565b610ab881610a9d565b82525050565b610ac781610a1a565b82525050565b600060ff82169050919050565b610ae381610acd565b82525050565b6000606082019050610afe6000830186610aaf565b610b0b6020830185610abe565b610b186040830184610ada565b949350505050565b600080fd5b6000601f19601f8301169050919050565b7f4e487b7100000000000000000000000000000000000000000000000000000000600052604160045260246000fd5b610b6e82610b25565b810181811067ffffffffffffffff82111715610b8d57610b8c610b36565b5b80604052505050565b6000610ba0610a06565b9050610bac8282610b65565b919050565b600067ffffffffffffffff821115610bcc57610bcb610b36565b5b602082029050602081019050919050565b600080fd5b6000610bf5610bf084610bb1565b610b96565b90508083825260208201905060208402830185811115610c1857610c17610bdd565b5b835b81811015610c415780610c2d8882610a3b565b845260208401935050602081019050610c1a565b5050509392505050565b600082601f830112610c6057610c5f610b20565b5b8135610c70848260208601610be2565b91505092915050565b60008060408385031215610c9057610c8f610a10565b5b6000610c9e85828601610a3b565b925050602083013567ffffffffffffffff811115610cbf57610cbe610a15565b5b610ccb85828601610c4b565b9150509250929050565b6000602082019050610cea6000830184610abe565b92915050565b610cf981610acd565b8114610d0457600080fd5b50565b600081359050610d1681610cf0565b92915050565b600060208284031215610d3257610d31610a10565b5b6000610d4084828501610d07565b91505092915050565b6000604082019050610d5e6000830185610aaf565b610d6b6020830184610aaf565b9392505050565b6000819050919050565b610d8581610d72565b82525050565b600067ffffffffffffffff82169050919050565b610da881610d8b565b82525050565b600061ffff82169050919050565b6000819050919050565b6000610de1610ddc610dd784610acd565b610dbc565b610dae565b9050919050565b610df181610dc6565b82525050565b600063ffffffff82169050919050565b610e1081610df7565b82525050565b6000610e31610e2c610e2784610acd565b610dbc565b610df7565b9050919050565b610e4181610e16565b82525050565b600060a082019050610e5c6000830188610d7c565b610e696020830187610d9f565b610e766040830186610de8565b610e836060830185610e07565b610e906080830184610e38565b9695505050505050565b600081519050610ea981610a24565b92915050565b600060208284031215610ec557610ec4610a10565b5b6000610ed384828501610e9a565b91505092915050565b7f4e487b7100000000000000000000000000000000000000000000000000000000600052601160045260246000fd5b6000610f1682610a1a565b9150610f2183610a1a565b9250828203905081811115610f3957610f38610edc565b5b92915050565b6000610f4a82610a1a565b9150610f5583610a1a565b9250828201905080821115610f6d57610f6c610edc565b5b92915050565b7f4e487b7100000000000000000000000000000000000000000000000000000000600052603260045260246000fd5b7f4e487b7100000000000000000000000000000000000000000000000000000000600052601260045260246000fd5b6000610fdc82610a1a565b9150610fe783610a1a565b925082610ff757610ff6610fa2565b5b828206905092915050565b600061100d82610a1a565b915061101883610a1a565b925082820261102681610a1a565b9150828204841483151761103d5761103c610edc565b5b5092915050565b600081905092915050565b50565b600061105f600083611044565b915061106a8261104f565b600082019050919050565b600061108082611052565b915081905091905056fea26469706673582212205eedd45b5c2f5caf7ba2275d40acd1954cfcbd095887c14588b8d81cfd33d73e64736f6c63430008110033",
  "devdoc": {
    "kind": "dev",
    "methods": {},
    "version": 1
  },
  "userdoc": {
    "kind": "user",
    "methods": {},
    "version": 1
  },
  "storageLayout": {
    "storage": [
      {
        "astId": 1180,
        "contract": "contracts/Roll.sol:Roll",
        "label": "s_minBet",
        "offset": 0,
        "slot": "0",
        "type": "t_uint64"
      },
      {
        "astId": 1182,
        "contract": "contracts/Roll.sol:Roll",
        "label": "s_bank",
        "offset": 0,
        "slot": "1",
        "type": "t_uint256"
      },
      {
        "astId": 1187,
        "contract": "contracts/Roll.sol:Roll",
        "label": "bets",
        "offset": 0,
        "slot": "2",
        "type": "t_mapping(t_uint256,t_struct(Bet)1142_storage)"
      }
    ],
    "types": {
      "t_address_payable": {
        "encoding": "inplace",
        "label": "address payable",
        "numberOfBytes": "20"
      },
      "t_bool": {
        "encoding": "inplace",
        "label": "bool",
        "numberOfBytes": "1"
      },
      "t_mapping(t_uint256,t_struct(Bet)1142_storage)": {
        "encoding": "mapping",
        "key": "t_uint256",
        "label": "mapping(uint256 => struct BetLib.Bet)",
        "numberOfBytes": "32",
        "value": "t_struct(Bet)1142_storage"
      },
      "t_struct(Bet)1142_storage": {
        "encoding": "inplace",
        "label": "struct BetLib.Bet",
        "members": [
          {
            "astId": 1133,
            "contract": "contracts/Roll.sol:Roll",
            "label": "player",
            "offset": 0,
            "slot": "0",
            "type": "t_address_payable"
          },
          {
            "astId": 1135,
            "contract": "contracts/Roll.sol:Roll",
            "label": "amount",
            "offset": 0,
            "slot": "1",
            "type": "t_uint256"
          },
          {
            "astId": 1137,
            "contract": "contracts/Roll.sol:Roll",
            "label": "guess",
            "offset": 0,
            "slot": "2",
            "type": "t_uint8"
          },
          {
            "astId": 1139,
            "contract": "contracts/Roll.sol:Roll",
            "label": "winner",
            "offset": 1,
            "slot": "2",
            "type": "t_bool"
          },
          {
            "astId": 1141,
            "contract": "contracts/Roll.sol:Roll",
            "label": "completed",
            "offset": 2,
            "slot": "2",
            "type": "t_bool"
          }
        ],
        "numberOfBytes": "96"
      },
      "t_uint256": {
        "encoding": "inplace",
        "label": "uint256",
        "numberOfBytes": "32"
      },
      "t_uint64": {
        "encoding": "inplace",
        "label": "uint64",
        "numberOfBytes": "8"
      },
      "t_uint8": {
        "encoding": "inplace",
        "label": "uint8",
        "numberOfBytes": "1"
      }
    }
  }
}